{
  "contractName": "MedicalPrescription",
  "abi": [
    {
      "inputs": [],
      "stateMutability": "nonpayable",
      "type": "constructor"
    },
    {
      "anonymous": false,
      "inputs": [
        {
          "indexed": true,
          "internalType": "address",
          "name": "doctor",
          "type": "address"
        },
        {
          "indexed": true,
          "internalType": "bytes32",
          "name": "prescriptionHash",
          "type": "bytes32"
        },
        {
          "indexed": false,
          "internalType": "uint256",
          "name": "expirationDate",
          "type": "uint256"
        }
      ],
      "name": "PrescriptionAdded",
      "type": "event"
    },
    {
      "anonymous": false,
      "inputs": [
        {
          "indexed": true,
          "internalType": "address",
          "name": "pharmacist",
          "type": "address"
        },
        {
          "indexed": true,
          "internalType": "bytes32",
          "name": "prescriptionHash",
          "type": "bytes32"
        },
        {
          "indexed": false,
          "internalType": "uint256",
          "name": "deliveredAt",
          "type": "uint256"
        }
      ],
      "name": "PrescriptionDelivered",
      "type": "event"
    },
    {
      "anonymous": false,
      "inputs": [
        {
          "indexed": true,
          "internalType": "bytes32",
          "name": "prescriptionHash",
          "type": "bytes32"
        }
      ],
      "name": "PrescriptionExpired",
      "type": "event"
    },
    {
      "anonymous": false,
      "inputs": [
        {
          "indexed": true,
          "internalType": "address",
          "name": "doctor",
          "type": "address"
        },
        {
          "indexed": true,
          "internalType": "bytes32",
          "name": "prescriptionHash",
          "type": "bytes32"
        },
        {
          "indexed": false,
          "internalType": "string",
          "name": "reason",
          "type": "string"
        }
      ],
      "name": "PrescriptionRevoked",
      "type": "event"
    },
    {
      "anonymous": false,
      "inputs": [
        {
          "indexed": true,
          "internalType": "bytes32",
          "name": "role",
          "type": "bytes32"
        },
        {
          "indexed": true,
          "internalType": "bytes32",
          "name": "previousAdminRole",
          "type": "bytes32"
        },
        {
          "indexed": true,
          "internalType": "bytes32",
          "name": "newAdminRole",
          "type": "bytes32"
        }
      ],
      "name": "RoleAdminChanged",
      "type": "event"
    },
    {
      "anonymous": false,
      "inputs": [
        {
          "indexed": true,
          "internalType": "bytes32",
          "name": "role",
          "type": "bytes32"
        },
        {
          "indexed": true,
          "internalType": "address",
          "name": "account",
          "type": "address"
        },
        {
          "indexed": true,
          "internalType": "address",
          "name": "sender",
          "type": "address"
        }
      ],
      "name": "RoleGranted",
      "type": "event"
    },
    {
      "anonymous": false,
      "inputs": [
        {
          "indexed": true,
          "internalType": "bytes32",
          "name": "role",
          "type": "bytes32"
        },
        {
          "indexed": true,
          "internalType": "address",
          "name": "account",
          "type": "address"
        },
        {
          "indexed": true,
          "internalType": "address",
          "name": "sender",
          "type": "address"
        }
      ],
      "name": "RoleRevoked",
      "type": "event"
    },
    {
      "inputs": [],
      "name": "DEFAULT_ADMIN_ROLE",
      "outputs": [
        {
          "internalType": "bytes32",
          "name": "",
          "type": "bytes32"
        }
      ],
      "stateMutability": "view",
      "type": "function",
      "constant": true
    },
    {
      "inputs": [],
      "name": "DOCTOR_ROLE",
      "outputs": [
        {
          "internalType": "bytes32",
          "name": "",
          "type": "bytes32"
        }
      ],
      "stateMutability": "view",
      "type": "function",
      "constant": true
    },
    {
      "inputs": [],
      "name": "PHARMACIST_ROLE",
      "outputs": [
        {
          "internalType": "bytes32",
          "name": "",
          "type": "bytes32"
        }
      ],
      "stateMutability": "view",
      "type": "function",
      "constant": true
    },
    {
      "inputs": [
        {
          "internalType": "bytes32",
          "name": "role",
          "type": "bytes32"
        }
      ],
      "name": "getRoleAdmin",
      "outputs": [
        {
          "internalType": "bytes32",
          "name": "",
          "type": "bytes32"
        }
      ],
      "stateMutability": "view",
      "type": "function",
      "constant": true
    },
    {
      "inputs": [
        {
          "internalType": "bytes32",
          "name": "role",
          "type": "bytes32"
        },
        {
          "internalType": "address",
          "name": "account",
          "type": "address"
        }
      ],
      "name": "grantRole",
      "outputs": [],
      "stateMutability": "nonpayable",
      "type": "function"
    },
    {
      "inputs": [
        {
          "internalType": "bytes32",
          "name": "role",
          "type": "bytes32"
        },
        {
          "internalType": "address",
          "name": "account",
          "type": "address"
        }
      ],
      "name": "hasRole",
      "outputs": [
        {
          "internalType": "bool",
          "name": "",
          "type": "bool"
        }
      ],
      "stateMutability": "view",
      "type": "function",
      "constant": true
    },
    {
      "inputs": [
        {
          "internalType": "bytes32",
          "name": "role",
          "type": "bytes32"
        },
        {
          "internalType": "address",
          "name": "account",
          "type": "address"
        }
      ],
      "name": "renounceRole",
      "outputs": [],
      "stateMutability": "nonpayable",
      "type": "function"
    },
    {
      "inputs": [
        {
          "internalType": "bytes32",
          "name": "role",
          "type": "bytes32"
        },
        {
          "internalType": "address",
          "name": "account",
          "type": "address"
        }
      ],
      "name": "revokeRole",
      "outputs": [],
      "stateMutability": "nonpayable",
      "type": "function"
    },
    {
      "inputs": [
        {
          "internalType": "bytes4",
          "name": "interfaceId",
          "type": "bytes4"
        }
      ],
      "name": "supportsInterface",
      "outputs": [
        {
          "internalType": "bool",
          "name": "",
          "type": "bool"
        }
      ],
      "stateMutability": "view",
      "type": "function",
      "constant": true
    },
    {
      "inputs": [
        {
          "internalType": "address",
          "name": "doctor",
          "type": "address"
        }
      ],
      "name": "grantDoctorRole",
      "outputs": [],
      "stateMutability": "nonpayable",
      "type": "function"
    },
    {
      "inputs": [
        {
          "internalType": "address",
          "name": "doctor",
          "type": "address"
        }
      ],
      "name": "revokeDoctorRole",
      "outputs": [],
      "stateMutability": "nonpayable",
      "type": "function"
    },
    {
      "inputs": [
        {
          "internalType": "address",
          "name": "pharmacist",
          "type": "address"
        }
      ],
      "name": "grantPharmacistRole",
      "outputs": [],
      "stateMutability": "nonpayable",
      "type": "function"
    },
    {
      "inputs": [
        {
          "internalType": "address",
          "name": "pharmacist",
          "type": "address"
        }
      ],
      "name": "revokePharmacistRole",
      "outputs": [],
      "stateMutability": "nonpayable",
      "type": "function"
    },
    {
      "inputs": [
        {
          "internalType": "bytes32",
          "name": "prescriptionHash",
          "type": "bytes32"
        },
        {
          "internalType": "uint256",
          "name": "daysValid",
          "type": "uint256"
        }
      ],
      "name": "addPrescription",
      "outputs": [],
      "stateMutability": "nonpayable",
      "type": "function"
    },
    {
      "inputs": [
        {
          "internalType": "bytes32",
          "name": "prescriptionHash",
          "type": "bytes32"
        }
      ],
      "name": "verifyPrescription",
      "outputs": [
        {
          "internalType": "bool",
          "name": "",
          "type": "bool"
        }
      ],
      "stateMutability": "view",
      "type": "function",
      "constant": true
    },
    {
      "inputs": [
        {
          "internalType": "bytes32",
          "name": "prescriptionHash",
          "type": "bytes32"
        }
      ],
      "name": "deliverPrescription",
      "outputs": [],
      "stateMutability": "nonpayable",
      "type": "function"
    },
    {
      "inputs": [
        {
          "internalType": "bytes32",
          "name": "prescriptionHash",
          "type": "bytes32"
        },
        {
          "internalType": "string",
          "name": "reason",
          "type": "string"
        }
      ],
      "name": "revokePrescription",
      "outputs": [],
      "stateMutability": "nonpayable",
      "type": "function"
    },
    {
      "inputs": [
        {
          "internalType": "address",
          "name": "doctor",
          "type": "address"
        }
      ],
      "name": "getDoctorPrescriptions",
      "outputs": [
        {
          "internalType": "bytes32[]",
          "name": "",
          "type": "bytes32[]"
        }
      ],
      "stateMutability": "view",
      "type": "function",
      "constant": true
    },
    {
      "inputs": [
        {
          "internalType": "bytes32",
          "name": "prescriptionHash",
          "type": "bytes32"
        }
      ],
      "name": "getPrescriptionDetails",
      "outputs": [
        {
          "internalType": "address",
          "name": "",
          "type": "address"
        },
        {
          "internalType": "enum MedicalPrescription.PrescriptionStatus",
          "name": "",
          "type": "uint8"
        },
        {
          "internalType": "uint256",
          "name": "",
          "type": "uint256"
        }
      ],
      "stateMutability": "view",
      "type": "function",
      "constant": true
    }
  ],
  "bytecode": "0x60806040523480156200001157600080fd5b50620000276000801b336200002d60201b60201c565b620001a6565b6200003f82826200004360201b60201c565b5050565b6200005582826200013460201b60201c565b6200013057600160008084815260200190815260200160002060000160008373ffffffffffffffffffffffffffffffffffffffff1673ffffffffffffffffffffffffffffffffffffffff16815260200190815260200160002060006101000a81548160ff021916908315150217905550620000d56200019e60201b60201c565b73ffffffffffffffffffffffffffffffffffffffff168173ffffffffffffffffffffffffffffffffffffffff16837f2f8788117e7eff1d82e926ec794901d17c78024a50270940304540a733656f0d60405160405180910390a45b5050565b600080600084815260200190815260200160002060000160008373ffffffffffffffffffffffffffffffffffffffff1673ffffffffffffffffffffffffffffffffffffffff16815260200190815260200160002060009054906101000a900460ff16905092915050565b600033905090565b612ca480620001b66000396000f3fe608060405234801561001057600080fd5b50600436106101215760003560e01c80639d7fae31116100ad578063c532d9fa11610071578063c532d9fa14610316578063d547741f14610334578063e232f7cc14610350578063f971f3f11461036c578063fec331f21461039c57610121565b80639d7fae311461025e578063a03f6d3e14610290578063a217fddf146102ac578063a4c54e77146102ca578063ba3a7fee146102fa57610121565b806336568abe116100f457806336568abe146101be5780636bd6f34b146101da5780638642727f146101f657806391d14854146102125780639379244e1461024257610121565b806301ffc9a714610126578063248a9ca3146101565780632f2ff15d146101865780632f5635cc146101a2575b600080fd5b610140600480360381019061013b9190612153565b6103ba565b60405161014d919061272d565b60405180910390f35b610170600480360381019061016b919061205e565b610434565b60405161017d9190612748565b60405180910390f35b6101a0600480360381019061019b9190612087565b610453565b005b6101bc60048036038101906101b79190612035565b610474565b005b6101d860048036038101906101d39190612087565b6104af565b005b6101f460048036038101906101ef9190612035565b610532565b005b610210600480360381019061020b9190612035565b61056d565b005b61022c60048036038101906102279190612087565b6105a8565b604051610239919061272d565b60405180910390f35b61025c60048036038101906102579190612035565b610612565b005b6102786004803603810190610273919061205e565b61064d565b604051610287939291906126d4565b60405180910390f35b6102aa60048036038101906102a59190612117565b6107e1565b005b6102b4610ace565b6040516102c19190612748565b60405180910390f35b6102e460048036038101906102df9190612035565b610ad5565b6040516102f1919061270b565b60405180910390f35b610314600480360381019061030f919061205e565b610c05565b005b61031e611103565b60405161032b9190612748565b60405180910390f35b61034e60048036038101906103499190612087565b611127565b005b61036a600480360381019061036591906120c3565b611148565b005b6103866004803603810190610381919061205e565b6116d9565b604051610393919061272d565b60405180910390f35b6103a4611936565b6040516103b19190612748565b60405180910390f35b60007f7965db0b000000000000000000000000000000000000000000000000000000007bffffffffffffffffffffffffffffffffffffffffffffffffffffffff1916827bffffffffffffffffffffffffffffffffffffffffffffffffffffffff1916148061042d575061042c8261195a565b5b9050919050565b6000806000838152602001908152602001600020600101549050919050565b61045c82610434565b610465816119c4565b61046f83836119d8565b505050565b6000801b610481816119c4565b6104ab7f0af1dac7dea2fd7f7738119cec7df099dfad49aa9d2e7d17ba6b60f63ae7411f83610453565b5050565b6104b7611ab8565b73ffffffffffffffffffffffffffffffffffffffff168173ffffffffffffffffffffffffffffffffffffffff1614610524576040517f08c379a000000000000000000000000000000000000000000000000000000000815260040161051b906128a5565b60405180910390fd5b61052e8282611ac0565b5050565b6000801b61053f816119c4565b6105697f0af1dac7dea2fd7f7738119cec7df099dfad49aa9d2e7d17ba6b60f63ae7411f83611127565b5050565b6000801b61057a816119c4565b6105a47fc2d498fa6734073871a6dde33c56174c52423804118e0d5b66171fad3494de6883611127565b5050565b600080600084815260200190815260200160002060000160008373ffffffffffffffffffffffffffffffffffffffff1673ffffffffffffffffffffffffffffffffffffffff16815260200190815260200160002060009054906101000a900460ff16905092915050565b6000801b61061f816119c4565b6106497fc2d498fa6734073871a6dde33c56174c52423804118e0d5b66171fad3494de6883610453565b5050565b600080600061067c7f0af1dac7dea2fd7f7738119cec7df099dfad49aa9d2e7d17ba6b60f63ae7411f336105a8565b806106ad57506106ac7fc2d498fa6734073871a6dde33c56174c52423804118e0d5b66171fad3494de68336105a8565b5b6106ec576040517f08c379a00000000000000000000000000000000000000000000000000000000081526004016106e3906127c5565b60405180910390fd5b6000600160008681526020019081526020016000209050600073ffffffffffffffffffffffffffffffffffffffff168160000160009054906101000a900473ffffffffffffffffffffffffffffffffffffffff1673ffffffffffffffffffffffffffffffffffffffff161415610797576040517f08c379a000000000000000000000000000000000000000000000000000000000815260040161078e90612865565b60405180910390fd5b8060000160009054906101000a900473ffffffffffffffffffffffffffffffffffffffff168160000160149054906101000a900460ff168260010154935093509350509193909250565b7f0af1dac7dea2fd7f7738119cec7df099dfad49aa9d2e7d17ba6b60f63ae7411f61080b816119c4565b600073ffffffffffffffffffffffffffffffffffffffff166001600085815260200190815260200160002060000160009054906101000a900473ffffffffffffffffffffffffffffffffffffffff1673ffffffffffffffffffffffffffffffffffffffff16146108b0576040517f08c379a00000000000000000000000000000000000000000000000000000000081526004016108a790612825565b60405180910390fd5b60405180606001604052803373ffffffffffffffffffffffffffffffffffffffff16815260200160006003811115610911577f4e487b7100000000000000000000000000000000000000000000000000000000600052602160045260246000fd5b815260200161093e61092f6201518086611ba190919063ffffffff16565b42611bb790919063ffffffff16565b8152506001600085815260200190815260200160002060008201518160000160006101000a81548173ffffffffffffffffffffffffffffffffffffffff021916908373ffffffffffffffffffffffffffffffffffffffff16021790555060208201518160000160146101000a81548160ff021916908360038111156109ec577f4e487b7100000000000000000000000000000000000000000000000000000000600052602160045260246000fd5b021790555060408201518160010155905050600260003373ffffffffffffffffffffffffffffffffffffffff1673ffffffffffffffffffffffffffffffffffffffff168152602001908152602001600020839080600181540180825580915050600190039060005260206000200160009091909190915055823373ffffffffffffffffffffffffffffffffffffffff167f8bf36eed34ba62080861e867781e9ad3f6f142df3ae925f004a0d0fe4e83ff656001600087815260200190815260200160002060010154604051610ac191906128c5565b60405180910390a3505050565b6000801b81565b60607f0af1dac7dea2fd7f7738119cec7df099dfad49aa9d2e7d17ba6b60f63ae7411f610b01816119c4565b3373ffffffffffffffffffffffffffffffffffffffff168373ffffffffffffffffffffffffffffffffffffffff1614610b6f576040517f08c379a0000000000000000000000000000000000000000000000000000000008152600401610b66906127a5565b60405180910390fd5b600260008473ffffffffffffffffffffffffffffffffffffffff1673ffffffffffffffffffffffffffffffffffffffff168152602001908152602001600020805480602002602001604051908101604052809291908181526020018280548015610bf857602002820191906000526020600020905b815481526020019060010190808311610be4575b5050505050915050919050565b7fc2d498fa6734073871a6dde33c56174c52423804118e0d5b66171fad3494de68610c2f816119c4565b816000600160008381526020019081526020016000209050600073ffffffffffffffffffffffffffffffffffffffff168160000160009054906101000a900473ffffffffffffffffffffffffffffffffffffffff1673ffffffffffffffffffffffffffffffffffffffff161415610cdb576040517f08c379a0000000000000000000000000000000000000000000000000000000008152600401610cd290612865565b60405180910390fd5b60006003811115610d15577f4e487b7100000000000000000000000000000000000000000000000000000000600052602160045260246000fd5b8160000160149054906101000a900460ff166003811115610d5f577f4e487b7100000000000000000000000000000000000000000000000000000000600052602160045260246000fd5b148015610d6f5750806001015442115b15610df55760038160000160146101000a81548160ff02191690836003811115610dc2577f4e487b7100000000000000000000000000000000000000000000000000000000600052602160045260246000fd5b0217905550817fb751e049dac1bc4a44a9476d65b0e814a8791f39e0564d9e676879d6b9e7a21860405160405180910390a25b600380811115610e2e577f4e487b7100000000000000000000000000000000000000000000000000000000600052602160045260246000fd5b8160000160149054906101000a900460ff166003811115610e78577f4e487b7100000000000000000000000000000000000000000000000000000000600052602160045260246000fd5b1415610eb9576040517f08c379a0000000000000000000000000000000000000000000000000000000008152600401610eb090612885565b60405180910390fd5b60016003811115610ef3577f4e487b7100000000000000000000000000000000000000000000000000000000600052602160045260246000fd5b8160000160149054906101000a900460ff166003811115610f3d577f4e487b7100000000000000000000000000000000000000000000000000000000600052602160045260246000fd5b1415610f7e576040517f08c379a0000000000000000000000000000000000000000000000000000000008152600401610f75906127e5565b60405180910390fd5b60026003811115610fb8577f4e487b7100000000000000000000000000000000000000000000000000000000600052602160045260246000fd5b8160000160149054906101000a900460ff166003811115611002577f4e487b7100000000000000000000000000000000000000000000000000000000600052602160045260246000fd5b1415611043576040517f08c379a000000000000000000000000000000000000000000000000000000000815260040161103a90612805565b60405180910390fd5b600060016000868152602001908152602001600020905060018160000160146101000a81548160ff021916908360038111156110a8577f4e487b7100000000000000000000000000000000000000000000000000000000600052602160045260246000fd5b0217905550843373ffffffffffffffffffffffffffffffffffffffff167fe5c32dfc31db6bc891a105c2b7010e4f29b6b3491c68056cea7c47c70c0af8c7426040516110f491906128c5565b60405180910390a35050505050565b7fc2d498fa6734073871a6dde33c56174c52423804118e0d5b66171fad3494de6881565b61113082610434565b611139816119c4565b6111438383611ac0565b505050565b7f0af1dac7dea2fd7f7738119cec7df099dfad49aa9d2e7d17ba6b60f63ae7411f611172816119c4565b826000600160008381526020019081526020016000209050600073ffffffffffffffffffffffffffffffffffffffff168160000160009054906101000a900473ffffffffffffffffffffffffffffffffffffffff1673ffffffffffffffffffffffffffffffffffffffff16141561121e576040517f08c379a000000000000000000000000000000000000000000000000000000000815260040161121590612865565b60405180910390fd5b60006003811115611258577f4e487b7100000000000000000000000000000000000000000000000000000000600052602160045260246000fd5b8160000160149054906101000a900460ff1660038111156112a2577f4e487b7100000000000000000000000000000000000000000000000000000000600052602160045260246000fd5b1480156112b25750806001015442115b156113385760038160000160146101000a81548160ff02191690836003811115611305577f4e487b7100000000000000000000000000000000000000000000000000000000600052602160045260246000fd5b0217905550817fb751e049dac1bc4a44a9476d65b0e814a8791f39e0564d9e676879d6b9e7a21860405160405180910390a25b600380811115611371577f4e487b7100000000000000000000000000000000000000000000000000000000600052602160045260246000fd5b8160000160149054906101000a900460ff1660038111156113bb577f4e487b7100000000000000000000000000000000000000000000000000000000600052602160045260246000fd5b14156113fc576040517f08c379a00000000000000000000000000000000000000000000000000000000081526004016113f390612885565b60405180910390fd5b60016003811115611436577f4e487b7100000000000000000000000000000000000000000000000000000000600052602160045260246000fd5b8160000160149054906101000a900460ff166003811115611480577f4e487b7100000000000000000000000000000000000000000000000000000000600052602160045260246000fd5b14156114c1576040517f08c379a00000000000000000000000000000000000000000000000000000000081526004016114b8906127e5565b60405180910390fd5b600260038111156114fb577f4e487b7100000000000000000000000000000000000000000000000000000000600052602160045260246000fd5b8160000160149054906101000a900460ff166003811115611545577f4e487b7100000000000000000000000000000000000000000000000000000000600052602160045260246000fd5b1415611586576040517f08c379a000000000000000000000000000000000000000000000000000000000815260040161157d90612805565b60405180910390fd5b60006001600087815260200190815260200160002090503373ffffffffffffffffffffffffffffffffffffffff168160000160009054906101000a900473ffffffffffffffffffffffffffffffffffffffff1673ffffffffffffffffffffffffffffffffffffffff161461162f576040517f08c379a000000000000000000000000000000000000000000000000000000000815260040161162690612845565b60405180910390fd5b60028160000160146101000a81548160ff0219169083600381111561167d577f4e487b7100000000000000000000000000000000000000000000000000000000600052602160045260246000fd5b0217905550853373ffffffffffffffffffffffffffffffffffffffff167f7fd79c129d47c1b43e8505f360bd0f8becef4fe420c56efb240382de7f9a3de9876040516116c99190612763565b60405180910390a3505050505050565b60007fc2d498fa6734073871a6dde33c56174c52423804118e0d5b66171fad3494de68611705816119c4565b6000600160008581526020019081526020016000206040518060600160405290816000820160009054906101000a900473ffffffffffffffffffffffffffffffffffffffff1673ffffffffffffffffffffffffffffffffffffffff1673ffffffffffffffffffffffffffffffffffffffff1681526020016000820160149054906101000a900460ff1660038111156117c6577f4e487b7100000000000000000000000000000000000000000000000000000000600052602160045260246000fd5b60038111156117fe577f4e487b7100000000000000000000000000000000000000000000000000000000600052602160045260246000fd5b8152602001600182015481525050905060006003811115611848577f4e487b7100000000000000000000000000000000000000000000000000000000600052602160045260246000fd5b81602001516003811115611885577f4e487b7100000000000000000000000000000000000000000000000000000000600052602160045260246000fd5b1480156118955750806040015142115b156118a4576000925050611930565b600060038111156118de577f4e487b7100000000000000000000000000000000000000000000000000000000600052602160045260246000fd5b8160200151600381111561191b577f4e487b7100000000000000000000000000000000000000000000000000000000600052602160045260246000fd5b14801561192c575080604001514211155b9250505b50919050565b7f0af1dac7dea2fd7f7738119cec7df099dfad49aa9d2e7d17ba6b60f63ae7411f81565b60007f01ffc9a7000000000000000000000000000000000000000000000000000000007bffffffffffffffffffffffffffffffffffffffffffffffffffffffff1916827bffffffffffffffffffffffffffffffffffffffffffffffffffffffff1916149050919050565b6119d5816119d0611ab8565b611bcd565b50565b6119e282826105a8565b611ab457600160008084815260200190815260200160002060000160008373ffffffffffffffffffffffffffffffffffffffff1673ffffffffffffffffffffffffffffffffffffffff16815260200190815260200160002060006101000a81548160ff021916908315150217905550611a59611ab8565b73ffffffffffffffffffffffffffffffffffffffff168173ffffffffffffffffffffffffffffffffffffffff16837f2f8788117e7eff1d82e926ec794901d17c78024a50270940304540a733656f0d60405160405180910390a45b5050565b600033905090565b611aca82826105a8565b15611b9d57600080600084815260200190815260200160002060000160008373ffffffffffffffffffffffffffffffffffffffff1673ffffffffffffffffffffffffffffffffffffffff16815260200190815260200160002060006101000a81548160ff021916908315150217905550611b42611ab8565b73ffffffffffffffffffffffffffffffffffffffff168173ffffffffffffffffffffffffffffffffffffffff16837ff6391f5c32d9c69d2a47ea670b442974b53935d1edc7fd64eb21e047a839171b60405160405180910390a45b5050565b60008183611baf91906129f7565b905092915050565b60008183611bc591906129a1565b905092915050565b611bd782826105a8565b611c4e57611be481611c52565b611bf28360001c6020611c7f565b604051602001611c0392919061269a565b6040516020818303038152906040526040517f08c379a0000000000000000000000000000000000000000000000000000000008152600401611c459190612763565b60405180910390fd5b5050565b6060611c788273ffffffffffffffffffffffffffffffffffffffff16601460ff16611c7f565b9050919050565b606060006002836002611c9291906129f7565b611c9c91906129a1565b67ffffffffffffffff811115611cdb577f4e487b7100000000000000000000000000000000000000000000000000000000600052604160045260246000fd5b6040519080825280601f01601f191660200182016040528015611d0d5781602001600182028036833780820191505090505b5090507f300000000000000000000000000000000000000000000000000000000000000081600081518110611d6b577f4e487b7100000000000000000000000000000000000000000000000000000000600052603260045260246000fd5b60200101907effffffffffffffffffffffffffffffffffffffffffffffffffffffffffffff1916908160001a9053507f780000000000000000000000000000000000000000000000000000000000000081600181518110611df5577f4e487b7100000000000000000000000000000000000000000000000000000000600052603260045260246000fd5b60200101907effffffffffffffffffffffffffffffffffffffffffffffffffffffffffffff1916908160001a90535060006001846002611e3591906129f7565b611e3f91906129a1565b90505b6001811115611f2b577f3031323334353637383961626364656600000000000000000000000000000000600f861660108110611ea7577f4e487b7100000000000000000000000000000000000000000000000000000000600052603260045260246000fd5b1a60f81b828281518110611ee4577f4e487b7100000000000000000000000000000000000000000000000000000000600052603260045260246000fd5b60200101907effffffffffffffffffffffffffffffffffffffffffffffffffffffffffffff1916908160001a905350600485901c945080611f2490612b36565b9050611e42565b5060008414611f6f576040517f08c379a0000000000000000000000000000000000000000000000000000000008152600401611f6690612785565b60405180910390fd5b8091505092915050565b6000611f8c611f8784612911565b6128e0565b905082815260208101848484011115611fa457600080fd5b611faf848285612af4565b509392505050565b600081359050611fc681612c12565b92915050565b600081359050611fdb81612c29565b92915050565b600081359050611ff081612c40565b92915050565b600082601f83011261200757600080fd5b8135612017848260208601611f79565b91505092915050565b60008135905061202f81612c57565b92915050565b60006020828403121561204757600080fd5b600061205584828501611fb7565b91505092915050565b60006020828403121561207057600080fd5b600061207e84828501611fcc565b91505092915050565b6000806040838503121561209a57600080fd5b60006120a885828601611fcc565b92505060206120b985828601611fb7565b9150509250929050565b600080604083850312156120d657600080fd5b60006120e485828601611fcc565b925050602083013567ffffffffffffffff81111561210157600080fd5b61210d85828601611ff6565b9150509250929050565b6000806040838503121561212a57600080fd5b600061213885828601611fcc565b925050602061214985828601612020565b9150509250929050565b60006020828403121561216557600080fd5b600061217384828501611fe1565b91505092915050565b60006121888383612210565b60208301905092915050565b61219d81612a51565b82525050565b60006121ae82612951565b6121b88185612974565b93506121c383612941565b8060005b838110156121f45781516121db888261217c565b97506121e683612967565b9250506001810190506121c7565b5085935050505092915050565b61220a81612a63565b82525050565b61221981612a6f565b82525050565b61222881612a6f565b82525050565b61223781612ae2565b82525050565b60006122488261295c565b6122528185612985565b9350612262818560208601612b03565b61226b81612bed565b840191505092915050565b60006122818261295c565b61228b8185612996565b935061229b818560208601612b03565b80840191505092915050565b60006122b4602083612985565b91507f537472696e67733a20686578206c656e67746820696e73756666696369656e746000830152602082019050919050565b60006122f4603483612985565b91507f4f6e6c79206120646f63746f722063616e20616363657373207468656972206f60008301527f776e20707265736372697074696f6e206c6973740000000000000000000000006020830152604082019050919050565b600061235a602a83612985565b91507f43616c6c6572206d757374206861766520446f63746f72206f7220506861726d60008301527f616369737420726f6c65000000000000000000000000000000000000000000006020830152604082019050919050565b60006123c0602783612985565b91507f507265736372697074696f6e2068617320616c7265616479206265656e20646560008301527f6c697665726564000000000000000000000000000000000000000000000000006020830152604082019050919050565b6000612426601d83612985565b91507f507265736372697074696f6e20686173206265656e207265766f6b65640000006000830152602082019050919050565b6000612466602a83612985565b91507f507265736372697074696f6e20776974682074686973206861736820616c726560008301527f61647920657869737473000000000000000000000000000000000000000000006020830152604082019050919050565b60006124cc603a83612985565b91507f4f6e6c792074686520646f63746f722077686f2063726561746564207468652060008301527f707265736372697074696f6e2063616e207265766f6b652069740000000000006020830152604082019050919050565b6000612532601b83612985565b91507f507265736372697074696f6e20646f6573206e6f7420657869737400000000006000830152602082019050919050565b6000612572601783612996565b91507f416363657373436f6e74726f6c3a206163636f756e74200000000000000000006000830152601782019050919050565b60006125b2601883612985565b91507f507265736372697074696f6e20686173206578706972656400000000000000006000830152602082019050919050565b60006125f2601183612996565b91507f206973206d697373696e6720726f6c65200000000000000000000000000000006000830152601182019050919050565b6000612632602f83612985565b91507f416363657373436f6e74726f6c3a2063616e206f6e6c792072656e6f756e636560008301527f20726f6c657320666f722073656c6600000000000000000000000000000000006020830152604082019050919050565b61269481612ad8565b82525050565b60006126a582612565565b91506126b18285612276565b91506126bc826125e5565b91506126c88284612276565b91508190509392505050565b60006060820190506126e96000830186612194565b6126f6602083018561222e565b612703604083018461268b565b949350505050565b6000602082019050818103600083015261272581846121a3565b905092915050565b60006020820190506127426000830184612201565b92915050565b600060208201905061275d600083018461221f565b92915050565b6000602082019050818103600083015261277d818461223d565b905092915050565b6000602082019050818103600083015261279e816122a7565b9050919050565b600060208201905081810360008301526127be816122e7565b9050919050565b600060208201905081810360008301526127de8161234d565b9050919050565b600060208201905081810360008301526127fe816123b3565b9050919050565b6000602082019050818103600083015261281e81612419565b9050919050565b6000602082019050818103600083015261283e81612459565b9050919050565b6000602082019050818103600083015261285e816124bf565b9050919050565b6000602082019050818103600083015261287e81612525565b9050919050565b6000602082019050818103600083015261289e816125a5565b9050919050565b600060208201905081810360008301526128be81612625565b9050919050565b60006020820190506128da600083018461268b565b92915050565b6000604051905081810181811067ffffffffffffffff8211171561290757612906612bbe565b5b8060405250919050565b600067ffffffffffffffff82111561292c5761292b612bbe565b5b601f19601f8301169050602081019050919050565b6000819050602082019050919050565b600081519050919050565b600081519050919050565b6000602082019050919050565b600082825260208201905092915050565b600082825260208201905092915050565b600081905092915050565b60006129ac82612ad8565b91506129b783612ad8565b9250827fffffffffffffffffffffffffffffffffffffffffffffffffffffffffffffffff038211156129ec576129eb612b60565b5b828201905092915050565b6000612a0282612ad8565b9150612a0d83612ad8565b9250817fffffffffffffffffffffffffffffffffffffffffffffffffffffffffffffffff0483118215151615612a4657612a45612b60565b5b828202905092915050565b6000612a5c82612ab8565b9050919050565b60008115159050919050565b6000819050919050565b60007fffffffff0000000000000000000000000000000000000000000000000000000082169050919050565b6000819050612ab382612bfe565b919050565b600073ffffffffffffffffffffffffffffffffffffffff82169050919050565b6000819050919050565b6000612aed82612aa5565b9050919050565b82818337600083830152505050565b60005b83811015612b21578082015181840152602081019050612b06565b83811115612b30576000848401525b50505050565b6000612b4182612ad8565b91506000821415612b5557612b54612b60565b5b600182039050919050565b7f4e487b7100000000000000000000000000000000000000000000000000000000600052601160045260246000fd5b7f4e487b7100000000000000000000000000000000000000000000000000000000600052602160045260246000fd5b7f4e487b7100000000000000000000000000000000000000000000000000000000600052604160045260246000fd5b6000601f19601f8301169050919050565b60048110612c0f57612c0e612b8f565b5b50565b612c1b81612a51565b8114612c2657600080fd5b50565b612c3281612a6f565b8114612c3d57600080fd5b50565b612c4981612a79565b8114612c5457600080fd5b50565b612c6081612ad8565b8114612c6b57600080fd5b5056fea2646970667358221220400a96c742f2db3a7c5f0be33bb2d2d94022ebb2c277723030fe2d0a4e03a0d564736f6c63430008000033",
  "immutableReferences": {},
  "source": "pragma solidity ^0.8.0;\r\n\r\nimport \"@openzeppelin/contracts/access/AccessControl.sol\";\r\nimport \"@openzeppelin/contracts/utils/math/SafeMath.sol\";\r\n\r\ncontract MedicalPrescription is AccessControl {\r\n    using SafeMath for uint256;\r\n\r\n    // Define roles using constants\r\n    bytes32 public constant DOCTOR_ROLE = keccak256(\"DOCTOR_ROLE\");\r\n    bytes32 public constant PHARMACIST_ROLE = keccak256(\"PHARMACIST_ROLE\");\r\n\r\n    enum PrescriptionStatus { Valid, Delivered, Revoked, Expired }\r\n\r\n    struct Prescription {\r\n        address doctor;\r\n        PrescriptionStatus status;\r\n        uint256 expirationDate;\r\n    }\r\n\r\n    mapping(bytes32 => Prescription) private prescriptions;\r\n    mapping(address => bytes32[]) private doctorPrescriptions;\r\n\r\n    event PrescriptionAdded(address indexed doctor, bytes32 indexed prescriptionHash, uint256 expirationDate);\r\n    event PrescriptionRevoked(address indexed doctor, bytes32 indexed prescriptionHash, string reason);\r\n    event PrescriptionDelivered(address indexed pharmacist, bytes32 indexed prescriptionHash, uint256 deliveredAt);\r\n    event PrescriptionExpired(bytes32 indexed prescriptionHash);\r\n\r\n    constructor() {\r\n        _setupRole(DEFAULT_ADMIN_ROLE, msg.sender);\r\n    }\r\n\r\n    // Modifier to check prescription expiration\r\n    modifier checkPrescription(bytes32 prescriptionHash) {\r\n        Prescription storage p = prescriptions[prescriptionHash];\r\n        require(p.doctor != address(0), \"Prescription does not exist\");\r\n        if (p.status == PrescriptionStatus.Valid && block.timestamp > p.expirationDate) {\r\n            p.status = PrescriptionStatus.Expired;\r\n            emit PrescriptionExpired(prescriptionHash);\r\n        }\r\n        require(p.status != PrescriptionStatus.Expired, \"Prescription has expired\");\r\n        require(p.status != PrescriptionStatus.Delivered, \"Prescription has already been delivered\");\r\n        require(p.status != PrescriptionStatus.Revoked, \"Prescription has been revoked\");\r\n        _;\r\n    }\r\n\r\n    // Role management functions\r\n    function grantDoctorRole(address doctor) public onlyRole(DEFAULT_ADMIN_ROLE) {\r\n        grantRole(DOCTOR_ROLE, doctor);\r\n    }\r\n\r\n    function revokeDoctorRole(address doctor) public onlyRole(DEFAULT_ADMIN_ROLE) {\r\n        revokeRole(DOCTOR_ROLE, doctor);\r\n    }\r\n\r\n    function grantPharmacistRole(address pharmacist) public onlyRole(DEFAULT_ADMIN_ROLE) {\r\n        grantRole(PHARMACIST_ROLE, pharmacist);\r\n    }\r\n\r\n    function revokePharmacistRole(address pharmacist) public onlyRole(DEFAULT_ADMIN_ROLE) {\r\n        revokeRole(PHARMACIST_ROLE, pharmacist);\r\n    }\r\n\r\n    // Prescription management functions\r\n    function addPrescription(bytes32 prescriptionHash, uint256 daysValid) public onlyRole(DOCTOR_ROLE) {\r\n        require(prescriptions[prescriptionHash].doctor == address(0), \"Prescription with this hash already exists\");\r\n        prescriptions[prescriptionHash] = Prescription({\r\n            doctor: msg.sender,\r\n            status: PrescriptionStatus.Valid,\r\n            expirationDate: block.timestamp.add(daysValid.mul(1 days))\r\n        });\r\n        doctorPrescriptions[msg.sender].push(prescriptionHash);\r\n        emit PrescriptionAdded(msg.sender, prescriptionHash, prescriptions[prescriptionHash].expirationDate);\r\n    }\r\n\r\n    function verifyPrescription(bytes32 prescriptionHash) public view onlyRole(PHARMACIST_ROLE) returns (bool) {\r\n        Prescription memory p = prescriptions[prescriptionHash];\r\n        if (p.status == PrescriptionStatus.Valid && block.timestamp > p.expirationDate) {\r\n            return false;\r\n        }\r\n        return p.status == PrescriptionStatus.Valid && block.timestamp <= p.expirationDate;\r\n    }\r\n\r\n    function deliverPrescription(bytes32 prescriptionHash) public onlyRole(PHARMACIST_ROLE) checkPrescription(prescriptionHash) {\r\n        Prescription storage p = prescriptions[prescriptionHash];\r\n        p.status = PrescriptionStatus.Delivered;\r\n        emit PrescriptionDelivered(msg.sender, prescriptionHash, block.timestamp);\r\n    }\r\n\r\n    function revokePrescription(bytes32 prescriptionHash, string memory reason) public onlyRole(DOCTOR_ROLE) checkPrescription(prescriptionHash) {\r\n        Prescription storage p = prescriptions[prescriptionHash];\r\n        require(p.doctor == msg.sender, \"Only the doctor who created the prescription can revoke it\");\r\n        p.status = PrescriptionStatus.Revoked;\r\n        emit PrescriptionRevoked(msg.sender, prescriptionHash, reason);\r\n    }\r\n\r\n    function getDoctorPrescriptions(address doctor) public view onlyRole(DOCTOR_ROLE) returns (bytes32[] memory) {\r\n        require(doctor == msg.sender, \"Only a doctor can access their own prescription list\");\r\n        return doctorPrescriptions[doctor];\r\n    }\r\n\r\n    function getPrescriptionDetails(bytes32 prescriptionHash) public view returns (address, PrescriptionStatus, uint256) {\r\n        require(hasRole(DOCTOR_ROLE, msg.sender) || hasRole(PHARMACIST_ROLE, msg.sender), \"Caller must have Doctor or Pharmacist role\");\r\n        Prescription storage prescription = prescriptions[prescriptionHash];\r\n        require(prescription.doctor != address(0), \"Prescription does not exist\");\r\n        return (prescription.doctor, prescription.status, prescription.expirationDate);\r\n    }\r\n}",
  "sourcePath": "C:\\Users\\arthu\\Documents\\PLDsmart\\blockchain\\contracts\\MedicalPrescription.sol",
  "compiler": {
    "name": "solc",
    "version": "0.8.0+commit.c7dfd78e.Emscripten.clang"
  },
  "schemaVersion": "3.4.13",
  "updatedAt": "2023-05-05T08:45:40.650Z",
  "networkType": "ethereum",
  "devdoc": {
    "kind": "dev",
    "methods": {
      "getRoleAdmin(bytes32)": {
        "details": "Returns the admin role that controls `role`. See {grantRole} and {revokeRole}. To change a role's admin, use {_setRoleAdmin}."
      },
      "grantRole(bytes32,address)": {
        "details": "Grants `role` to `account`. If `account` had not been already granted `role`, emits a {RoleGranted} event. Requirements: - the caller must have ``role``'s admin role. May emit a {RoleGranted} event."
      },
      "hasRole(bytes32,address)": {
        "details": "Returns `true` if `account` has been granted `role`."
      },
      "renounceRole(bytes32,address)": {
        "details": "Revokes `role` from the calling account. Roles are often managed via {grantRole} and {revokeRole}: this function's purpose is to provide a mechanism for accounts to lose their privileges if they are compromised (such as when a trusted device is misplaced). If the calling account had been revoked `role`, emits a {RoleRevoked} event. Requirements: - the caller must be `account`. May emit a {RoleRevoked} event."
      },
      "revokeRole(bytes32,address)": {
        "details": "Revokes `role` from `account`. If `account` had been granted `role`, emits a {RoleRevoked} event. Requirements: - the caller must have ``role``'s admin role. May emit a {RoleRevoked} event."
      },
      "supportsInterface(bytes4)": {
        "details": "See {IERC165-supportsInterface}."
      }
    },
    "version": 1
  },
  "userdoc": {
    "kind": "user",
    "methods": {},
    "version": 1
  }
}